:100000000C9434000C9451000C9451000C94510049
:100010000C9451000C9451000C9451000C9451001C
:100020000C9451000C9451000C9451000C9451000C
:100030000C9451000C9451000C9451000C945100FC
:100040000C9451000C9451000C9451000C945100EC
:100050000C9451000C9451000C9451000C945100DC
:100060000C9451000C94510011241FBECFEFD4E02A
:10007000DEBFCDBF11E0A0E0B1E0ECE3F4E002C0F0
:1000800005900D92A032B107D9F721E0A0E2B1E0CE
:1000900001C01D92A432B207E1F70E94AC000C949B
:1000A0001C020C9400002F9808952F9A0895E1E8FF
:1000B000F0E080818B7F80838081836080830895DE
:1000C000E1E8F0E080818260808380818A7F8083A4
:1000D000089528982E9A0895289A2E980895289A77
:1000E0002E9A089528982E98089580912201909133
:1000F0002301019739F40E945300109223011092BA
:10010000220108950E94550081E090E09093230120
:1001100080932201089510922101109220014598A8
:1001200000C00000459A25E02A95F1F7459800C0E7
:1001300000008091200190912101349B06C001961E
:100140009093210180932001F4CF883823E1920716
:1001500014F40C94C4010895CF93DF9300D0CDB76D
:10016000DEB71A82198284B18B6C84B93D9A3C98AF
:1001700028982E982F9A809180008160809380002B
:10018000809180008D7F80938000809181008860C5
:1001900080938100809181008F7E80938100809187
:1001A0008100826080938100809181008A7F8093AA
:1001B0008100809180008068809380008091800021
:1001C0008F6B80938000809180008062809380009C
:1001D000809180008F6E809380001092C5008CE02B
:1001E0008093C4008091C00082608093C00088E149
:1001F0008093C10086E08093C2008091C200877F17
:100200008093C2008FEF90E09093890080938800E4
:100210000E9453000E948B0062E0CE0101960E9472
:10022000980160E071E0CE0101960E941302892BD3
:1002300019F40E9472004EC062E071E0CE01019696
:100240000E941302892B19F40E946C0043C064E0E1
:1002500071E0CE0101960E941302892B19F40E94CD
:100260006F0038C066E171E0CE0101960E94130272
:10027000892B19F40E9469002DC066E071E0CE015F
:1002800001960E941302892B81F40E9475008091CF
:10029000220190912301019719F488E091E002C0B6
:1002A00080E191E00E94850115C068E171E0CE0116
:1002B00001960E941302892B19F40E9460000AC063
:1002C0006AE171E0CE0101960E941302892B11F4BC
:1002D0000E9457008CE191E00E948501CE010196B9
:1002E0000E9485018DE191E00E94850193CF90915C
:1002F000C00095FFFCCF8093C60008958091C00098
:1003000087FFFCCF8091C60008950F931F93CF9372
:100310008C01C0E0F801EC0FF11D8081882321F0F1
:100320000E947701CF5FF6CFCF911F910F91089573
:10033000CF92DF92EF92FF920F931F93CF93DF93B1
:100340006C01F12C062F10E001501109CF2DD0E0E7
:10035000C017D10744F40E947E01E82E0E94770165
:100360008DE0E8120CC0CC0DDD1D1882DF91CF911D
:100370001F910F91FF90EF90DF90CF900895CC0DDB
:10038000DD1DE882F394E2CF0F931F93CF93DF93A9
:100390008C0160E177E20E94FF0180E3860F0E94FA
:1003A0007701C80168EE73E00E94FF01CB01CAE04B
:1003B000D0E0BE010E94FF01805D0E947701C8016C
:1003C00064E670E00E94FF01CB01BE010E94FF01C4
:1003D000805D0E947701C801BE010E94FF01182FB5
:1003E000CB01BE010E94FF01805D0E94770180E386
:1003F000810FDF91CF911F910F910C947701AA1B70
:10040000BB1B51E107C0AA1FBB1FA617B70710F0FF
:10041000A61BB70B881F991F5A95A9F78095909531
:10042000BC01CD010895FB01DC018D910190801983
:0C0430000110D9F3990B0895F894FFCF48
:10043C00770061007300200044726976696E670072
:10044C0053746F70706564007A0063000A0D0000CD
:00000001FF
